:100000000C9458000C9480000C9480000C94800098
:100010000C9480000C9480000C9480000C94800060
:100020000C9480000C9480000C9480000C94800050
:100030000C9480000C9480000C9480000C94800040
:100040000C9453040C9480000C9421040C94FB0336
:100050000C9480000C9480000C9480000C94800020
:100060000C949D040C9480000000000025002800E2
:100070002B00040404040404040402020202020229
:10008000030303030303010204081020408001025C
:1000900004081020010204081020000000080002DB
:1000A0000100000304070000000000000000CB0571
:1000B00011241FBECFEFD8E0DEBFCDBF11E0A0E01E
:1000C000B1E0EEEEFDE002C005900D92AE33B10757
:1000D000D9F722E0AEE3B1E001C01D92A039B2072A
:1000E000E1F710E0C8E5D0E004C02197FE010E94CE
:1000F000EA06C735D107C9F70E9413060C94F50626
:100100000C94000090E0FC01E656FF4F2491FC01A6
:10011000EA57FF4F3491FC01EE58FF4FE491EE2374
:10012000B1F1222339F1233091F038F42130A9F0D4
:10013000223001F584B58F7D12C0273091F0283030
:10014000A1F02430B9F4809180008F7D03C08091AC
:1001500080008F77809380000DC084B58F7784BD39
:1001600009C08091B0008F7703C08091B0008F7D6F
:100170008093B000F0E0EE0FFF1FE859FF4FA5910C
:10018000B4918FB7F894EC913E2B3C938FBF0895B8
:10019000CF92DF92EF92FF920F931F93CF93DF9353
:1001A0006C017A018B01C0E0D0E0CE15DF0589F04B
:1001B000D8016D918D01D601ED91FC910190F081F6
:1001C000E02DC6010995892B11F47E0102C021960C
:1001D000ECCFC701DF91CF911F910F91FF90EF906E
:1001E000DF90CF900895FC01538D448D252F30E092
:1001F000842F90E0821B930B541710F0CF96089534
:1002000001970895FC01918D828D981761F0828D80
:10021000DF01A80FB11D5D968C91928D9F5F9F733A
:10022000928F90E008958FEF9FEF0895FC01918DDC
:10023000828D981731F0828DE80FF11D858D90E049
:1002400008958FEF9FEF0895FC01918D228D892FE6
:1002500090E0805C9F4F821B91098F7399270895CE
:100260008BED91E00E94240121E0892B09F420E02C
:10027000822F0895FC01848DDF01A80FB11DA35AC0
:10028000BF4F2C91848D90E001968F739927848FB6
:10029000A689B7892C93A089B1898C9180648C93AD
:1002A000938D848D981306C00288F389E02D808198
:1002B0008F7D80830895EF92FF920F931F93CF93CA
:1002C000DF93EC0181E0888F9B8D8C8D981305C0A6
:1002D000E889F989808185FD24C0F62E0B8D10E018
:1002E0000F5F1F4F0F731127E02E8C8DE8120CC08B
:1002F0000FB607FCFACFE889F989808185FFF5CF31
:10030000CE010E943A01F1CF8B8DFE01E80FF11D65
:10031000E35AFF4FF0820B8FEA89FB89808180626C
:1003200007C0EE89FF896083E889F989808180644C
:10033000808381E090E0DF91CF911F910F91FF903A
:10034000EF900895CF93DF93EC01888D8823C9F057
:10035000EA89FB89808185FD05C0A889B9898C91CE
:1003600086FD0FC00FB607FCF5CF808185FFF2CF69
:10037000A889B9898C9185FFEDCFCE010E943A0101
:10038000E7CFDF91CF91089580E090E0892B29F0AD
:100390000E94300181110C94000008953FB7F89439
:1003A0008091D0019091D101A091D201B091D3015F
:1003B00026B5A89B05C02F3F19F00196A11DB11DC0
:1003C0003FBFBA2FA92F982F8827820F911DA11DFB
:1003D000B11DBC01CD0142E0660F771F881F991F38
:1003E0004A95D1F708958F929F92AF92BF92CF9284
:1003F000DF92EF92FF926B017C010E94CE014B01D4
:100400005C01C114D104E104F104F1F00E94CE01B9
:10041000DC01CB0188199909AA09BB09883E9340E0
:10042000A105B10570F321E0C21AD108E108F10875
:1004300088EE880E83E0981EA11CB11CC114D10463
:10044000E104F10419F7DDCFFF90EF90DF90CF903A
:10045000BF90AF909F908F90089585ED8093BC00E2
:100460008091BC0084FDFCCF1092D601089540918C
:100470006001262F30E0240F311D21323105DCF4DC
:100480002091D6012430C9F4FC0180E090E0861769
:1004900058F4309160012191DC01A25CBE4FA30FA2
:1004A000B11D2C930196F3CF80916001680F60938A
:1004B000600180E0089581E0089582E00895089544
:1004C00081E090E03091DA012091D901321710F4E7
:1004D00080E090E091958195910908958091DA01ED
:1004E0009091D901891730F48F5F8093DA0180E011
:1004F00090E008958FEF9FEF08958091D90190E0EB
:100500002091DA01821B91090895CF92DF92EF9238
:10051000FF920F931F93CF93DF937C01262F972F8A
:100520008A018091A901882391F0C62FD72F6E01EF
:10053000C40ED51ECC15DD0571F06991D701ED9182
:10054000FC910190F081E02DC7010995F3CF642F54
:10055000822F0E943702C801DF91CF911F910F9126
:10056000FF90EF90DF90CF900895CF93DF931F928D
:10057000CDB7DEB769832091A9012223D1F0209164
:10058000D701203240F021E030E0FC0133832283A8
:1005900080E090E015C08091D801E82FF0E0E655AA
:1005A000FE4F998190838F5F8093D8018093D7010C
:1005B00005C061E0CE0101960E94370281E090E023
:1005C0000F90DF91CF910895CF93FC01C48121E07A
:1005D0002093A901C093CA011092D8011092D701AB
:1005E0008385682B88E792E00E94B5028091D7014D
:1005F000813208F046C09091D6019111FCCF92E073
:100600009093D60191E09093D5019FEF9093A8012C
:100610001092A7018093A601AAEAB1E026E831E092
:10062000F9019E2F921B981718F49D919193F9CF81
:100630001092850180918501CC0FC82BC093850154
:100640008091D401813061F41092D40180918501B0
:100650008093BB008091BC0083FDF8CF85EC01C086
:1006600085EE8093BC008091D6018230E1F38091C9
:10067000A8018F3F31F08091A801803211F0809164
:10068000A8011092D8011092D7011092A901CF9120
:1006900008950F931F93CF938C01C62F0E94E402FD
:1006A0006C2F6460C8010E94E4026C2F6B7FC8014C
:1006B0000E94E40283EC90E00197F1F7CF911F9143
:1006C0000F910895FF920F931F93CF93DF931F9283
:1006D000CDB7DEB78C01F62E962F907F692F642B55
:1006E000C80149830E94490380E1F89EB0011124AA
:1006F0004981642BC8010F90DF91CF911F910F9119
:10070000FF900C944903CF93DF93823028F09091AF
:10071000890298609093890280938C0262E370E072
:1007200080E090E00E94F30160918F0284E892E003
:100730000E94E40268EE73E080E090E00E94F30122
:1007400060E384E892E00E944903CBE4D6E4CE0162
:100750000197F1F760E384E892E00E944903219752
:10076000F1F760E384E892E00E94490383E592E0B8
:100770000197F1F760E284E892E00E9449036091FA
:100780008902606240E084E892E00E94620384E0B3
:1007900080938A0240E06CE084E892E00E94620369
:1007A00040E061E084E892E00E946203CBE3DFE195
:1007B000CE010197F1F782E080938B0240E066E082
:1007C00084E892E00E94620340E062E084E892E004
:1007D0000E9462032197F1F7DF91CF91089541E0E4
:1007E0000E94620380E090E00895089580E090E028
:1007F00008950E94F0061F920F920FB60F921124D7
:100800002F933F934F935F936F937F938F939F9318
:10081000AF93BF93EF93FF938BED91E00E943A016A
:10082000FF91EF91BF91AF919F918F917F916F91C8
:100830005F914F913F912F910F900FBE0F901F909E
:1008400018951F920F920FB60F9211242F938F932A
:100850009F93EF93FF93E091EB01F091EC01808186
:10086000E091F101F091F20182FD12C0908180913E
:10087000F4018F5F8F732091F501821751F0E091A1
:10088000F401F0E0E552FE4F958F8093F40101C032
:100890008081FF91EF919F918F912F910F900FBECB
:1008A0000F901F9018951F920F920FB60F92112460
:1008B0002F933F938F939F93AF93BF938091CC01DE
:1008C0009091CD01A091CE01B091CF013091CB019B
:1008D00023E0230F2D3720F40196A11DB11D05C083
:1008E00026E8230F0296A11DB11D2093CB01809312
:1008F000CC019093CD01A093CE01B093CF01809114
:10090000D0019091D101A091D201B091D301019673
:10091000A11DB11D8093D0019093D101A093D2016C
:10092000B093D301BF91AF919F918F913F912F9140
:100930000F900FBE0F901F9018951F920F920FB639
:100940000F9211242F933F934F935F936F937F9355
:100950008F939F93AF93BF93EF93FF938091B900D1
:10096000887F803609F49CC068F5883209F45BC042
:1009700090F4803109F454C038F4882309F4F6C0A7
:10098000883009F44DC0F6C0883109F44CC080327B
:1009900009F45DC0EFC0803409F468C048F48033C6
:1009A00009F455C0883309F0E5C08093A801D8C088
:1009B000803509F44FC0883509F45DC0883409F0EA
:1009C000D9C0D6C0883909F4C7C0A8F4883709F45B
:1009D00067C038F4883609F463C0803709F460C012
:1009E000C9C0883809F4B8C0803909F45FC08038BC
:1009F00009F0C0C05BC0803B09F486C038F4803A7F
:100A000009F466C0883A09F47FC0B4C0803C09F498
:100A1000A7C0883C09F4A4C0883B09F48AC0AAC0D6
:100A20008091850110C09091A7018091A60198172F
:100A300070F5E091A70181E08E0F8093A701F0E0AF
:100A4000EA57FE4F80818093BB0085EC86C080937F
:100A5000A8018EC0E091A70181E08E0F8093A701CD
:100A60008091BB00F0E0EA57FE4F80839091A70190
:100A70008091A6016EC0E091A70181E08E0F809366
:100A8000A7018091BB00F0E0EA57FE4F8083809180
:100A9000D50181116DC081E08093D40184EA61C0E9
:100AA00083E08093D60110928401CFCF809184019E
:100AB000803208F051C0E091840181E08E0F809374
:100AC00084018091BB00F0E0EC59FE4F8083BDCFE4
:100AD00085EC8093BC001092D60180918401803215
:100AE00030F4E0918401F0E0EC59FE4F1082609107
:100AF000840170E0E0916201F091630184E691E08D
:100B000009951092840136C084E08093D60110923A
:100B1000610110926001E0915E01F0915F01099521
:100B200080916001811105C081E080936001109285
:100B30003E01E091610181E08E0F80936101F0E060
:100B4000E25CFE4F80818093BB00909161018091B7
:100B50006001981708F479CF85E88093BC000AC03B
:100B600085EC8093BC001092D60104C01092A801BD
:100B70000E942D02FF91EF91BF91AF919F918F91B4
:100B80007F916F915F914F913F912F910F900FBE89
:100B90000F901F901895EBEDF1E01382128288EE12
:100BA00093E0A0E0B0E084839583A683B78324E03C
:100BB00031E03183208325EC30E03587248724EC35
:100BC00030E03787268720EC30E0318B208B21EC1A
:100BD00030E0338B228B22EC30E0358B248B26ECFB
:100BE00030E0378B268B118E128E138E148EE8E731
:100BF000F2E01382128284839583A683B78386E111
:100C000091E091838083E4E8F2E01382128288E22B
:100C100091E09183808387E2848380E1818782E011
:100C2000828713860895789484B5826084BD84B5E4
:100C3000816084BD85B5826085BD85B5816085BDD7
:100C400080916E00816080936E001092810080918F
:100C50008100826080938100809181008160809317
:100C60008100809180008160809380008091B1003C
:100C700084608093B1008091B00081608093B00067
:100C800080917A00846080937A0080917A008260FB
:100C900080937A0080917A00816080937A008091BD
:100CA0007A00806880937A001092C100E091EB0195
:100CB000F091EC0182E08083E091E701F091E8019E
:100CC0001082E091E901F091EA018FEC80831092AB
:100CD000F301E091EF01F091F00186E08083E09173
:100CE000ED01F091EE01808180618083E091ED0162
:100CF000F091EE01808188608083E091ED01F091B8
:100D0000EE01808180688083E091ED01F091EE0139
:100D100080818F7D80831092DA011092D901109228
:100D2000D8011092D7011092D60181E08093D501AD
:100D30001092D40182E10E94820083E10E9482002D
:100D40008091B9008E7F8093B9008091B9008D7F2A
:100D50008093B90088E48093B80085E48093BC0058
:100D60001092890280918E020E94830388E0809312
:100D70008F0260E084E892E00E94E40282E00E9438
:100D8000830300E311E0C0E06C2F606840E084E87A
:100D900092E00E946203F801D1918F01E0918402F8
:100DA000F09185020190F081E02D6D2F84E892E0B2
:100DB0000995E091DB01F091DC010190F081E02DDB
:100DC0006D2F8BED91E00995CF5FC031E9F60E9460
:100DD000C401D7CFEE0FFF1F0590F491E02D0994C9
:0E0DE00081E090E0F8940C94F506F894FFCFB3
:100DEE00000000005B01C800F300A2012401020113
:100DFE00160100000000B5028502F6035F027D02B7
:100E0E006E02600200000000EF03C800F603F50357
:0E0E1E0048656C6C6F2C776F726C642100005D
:107E0000112484B714BE81FFF0D085E080938100F7
:107E100082E08093C00088E18093C10086E0809377
:107E2000C20080E18093C4008EE0C9D0259A86E02C
:107E300020E33CEF91E0309385002093840096BBD3
:107E4000B09BFECF1D9AA8958150A9F7CC24DD24C4
:107E500088248394B5E0AB2EA1E19A2EF3E0BF2EE7
:107E6000A2D0813461F49FD0082FAFD0023811F036
:107E7000013811F484E001C083E08DD089C08234E0
:107E800011F484E103C0853419F485E0A6D080C0E4
:107E9000853579F488D0E82EFF2485D0082F10E0AE
:107EA000102F00270E291F29000F111F8ED06801E7
:107EB0006FC0863521F484E090D080E0DECF843638
:107EC00009F040C070D06FD0082F6DD080E0C81688
:107ED00080E7D80618F4F601B7BEE895C0E0D1E017
:107EE00062D089930C17E1F7F0E0CF16F0E7DF06D8
:107EF00018F0F601B7BEE89568D007B600FCFDCFD4
:107F0000A601A0E0B1E02C9130E011968C91119780
:107F100090E0982F8827822B932B1296FA010C0160
:107F200087BEE89511244E5F5F4FF1E0A038BF0790
:107F300051F7F601A7BEE89507B600FCFDCF97BE46
:107F4000E89526C08437B1F42ED02DD0F82E2BD052
:107F50003CD0F601EF2C8F010F5F1F4F84911BD097
:107F6000EA94F801C1F70894C11CD11CFA94CF0C13
:107F7000D11C0EC0853739F428D08EE10CD085E9AC
:107F80000AD08FE07ACF813511F488E018D01DD067
:107F900080E101D065CF982F8091C00085FFFCCF94
:107FA0009093C60008958091C00087FFFCCF809118
:107FB000C00084FD01C0A8958091C6000895E0E648
:107FC000F0E098E1908380830895EDDF803219F02E
:107FD00088E0F5DFFFCF84E1DECF1F93182FE3DFCA
:107FE0001150E9F7F2DF1F91089580E0E8DFEE27F6
:047FF000FF270994CA
:027FFE00040479
:0400000300007E007B
:00000001FF
